{
  "_format": "hh-sol-artifact-1",
  "contractName": "SightFHEDataDAOVerifier",
  "sourceName": "contracts/SightFHEDataDAOVerifier.sol",
  "abi": [
    {
      "inputs": [],
      "stateMutability": "nonpayable",
      "type": "constructor"
    },
    {
      "inputs": [],
      "name": "ECDSAInvalidSignature",
      "type": "error"
    },
    {
      "inputs": [
        {
          "internalType": "uint256",
          "name": "length",
          "type": "uint256"
        }
      ],
      "name": "ECDSAInvalidSignatureLength",
      "type": "error"
    },
    {
      "inputs": [
        {
          "internalType": "bytes32",
          "name": "s",
          "type": "bytes32"
        }
      ],
      "name": "ECDSAInvalidSignatureS",
      "type": "error"
    },
    {
      "inputs": [],
      "name": "InvalidShortString",
      "type": "error"
    },
    {
      "inputs": [
        {
          "internalType": "string",
          "name": "str",
          "type": "string"
        }
      ],
      "name": "StringTooLong",
      "type": "error"
    },
    {
      "anonymous": false,
      "inputs": [],
      "name": "EIP712DomainChanged",
      "type": "event"
    },
    {
      "inputs": [],
      "name": "DATA_TYPEHASH",
      "outputs": [
        {
          "internalType": "bytes32",
          "name": "",
          "type": "bytes32"
        }
      ],
      "stateMutability": "view",
      "type": "function"
    },
    {
      "inputs": [],
      "name": "eip712Domain",
      "outputs": [
        {
          "internalType": "bytes1",
          "name": "fields",
          "type": "bytes1"
        },
        {
          "internalType": "string",
          "name": "name",
          "type": "string"
        },
        {
          "internalType": "string",
          "name": "version",
          "type": "string"
        },
        {
          "internalType": "uint256",
          "name": "chainId",
          "type": "uint256"
        },
        {
          "internalType": "address",
          "name": "verifyingContract",
          "type": "address"
        },
        {
          "internalType": "bytes32",
          "name": "salt",
          "type": "bytes32"
        },
        {
          "internalType": "uint256[]",
          "name": "extensions",
          "type": "uint256[]"
        }
      ],
      "stateMutability": "view",
      "type": "function"
    },
    {
      "inputs": [
        {
          "components": [
            {
              "internalType": "string",
              "name": "payload",
              "type": "string"
            }
          ],
          "internalType": "struct SightFHEDataDAOVerifier.Data",
          "name": "data",
          "type": "tuple"
        },
        {
          "internalType": "bytes",
          "name": "signature",
          "type": "bytes"
        },
        {
          "internalType": "address",
          "name": "expectedSigner",
          "type": "address"
        }
      ],
      "name": "isValidSignature",
      "outputs": [
        {
          "internalType": "bool",
          "name": "",
          "type": "bool"
        }
      ],
      "stateMutability": "view",
      "type": "function"
    },
    {
      "inputs": [
        {
          "components": [
            {
              "internalType": "string",
              "name": "payload",
              "type": "string"
            }
          ],
          "internalType": "struct SightFHEDataDAOVerifier.Data",
          "name": "data",
          "type": "tuple"
        },
        {
          "internalType": "bytes",
          "name": "signature",
          "type": "bytes"
        }
      ],
      "name": "verify",
      "outputs": [
        {
          "internalType": "address",
          "name": "",
          "type": "address"
        }
      ],
      "stateMutability": "view",
      "type": "function"
    }
  ],
  "bytecode": "0x61016060405234801561001157600080fd5b50604080518082018252601781527f53696768744648454461746144414f5665726966696572000000000000000000602080830191909152825180840190935260018352603160f81b908301529061006a826000610114565b61012052610079816001610114565b61014052815160208084019190912060e052815190820120610100524660a05261010660e05161010051604080517f8b73c3c69bb8fe3d512ecc4cf759cc79239f7b179b0ffacaa9a75d522b39400f60208201529081019290925260608201524660808201523060a082015260009060c00160405160208183030381529060405280519060200120905090565b60805250503060c05261035d565b60006020835110156101305761012983610147565b9050610141565b8161013b848261022d565b5060ff90505b92915050565b600080829050601f8151111561017b578260405163305a27a960e01b815260040161017291906102eb565b60405180910390fd5b805161018682610339565b179392505050565b634e487b7160e01b600052604160045260246000fd5b600181811c908216806101b857607f821691505b6020821081036101d857634e487b7160e01b600052602260045260246000fd5b50919050565b601f82111561022857806000526020600020601f840160051c810160208510156102055750805b601f840160051c820191505b818110156102255760008155600101610211565b50505b505050565b81516001600160401b038111156102465761024661018e565b61025a8161025484546101a4565b846101de565b6020601f82116001811461028e57600083156102765750848201515b600019600385901b1c1916600184901b178455610225565b600084815260208120601f198516915b828110156102be578785015182556020948501946001909201910161029e565b50848210156102dc5786840151600019600387901b60f8161c191681555b50505050600190811b01905550565b602081526000825180602084015260005b8181101561031957602081860181015160408684010152016102fc565b506000604082850101526040601f19601f83011684010191505092915050565b805160208083015191908110156101d85760001960209190910360031b1b16919050565b60805160a05160c05160e051610100516101205161014051610a186103b76000396000610220015260006101ee01526000610422015260006103fa015260006103550152600061037f015260006103a90152610a186000f3fe608060405234801561001057600080fd5b506004361061004c5760003560e01c806384b0196e14610051578063c4b12b5814610075578063eb9600f2146100a0578063ef601664146100d5575b600080fd5b6100596100f8565b60405161006c97969594939291906106fe565b60405180910390f35b6100886100833660046108c9565b61013e565b6040516001600160a01b03909116815260200161006c565b6100c77fb7b947523020bd88850598b9ffa3eae0773e31e0c0b44137779ea8564e09156081565b60405190815260200161006c565b6100e86100e3366004610932565b6101bf565b604051901515815260200161006c565b60006060806000806000606061010c6101e7565b610114610219565b60408051600080825260208201909252600f60f81b9b939a50919850469750309650945092509050565b815180516020918201206040516000928392610185927fb7b947523020bd88850598b9ffa3eae0773e31e0c0b44137779ea8564e0915609201918252602082015260400190565b60405160208183030381529060405280519060200120905060006101a882610246565b90506101b48185610273565b925050505b92915050565b6000816001600160a01b03166101d5858561013e565b6001600160a01b031614949350505050565b60606102147f0000000000000000000000000000000000000000000000000000000000000000600061029d565b905090565b60606102147f0000000000000000000000000000000000000000000000000000000000000000600161029d565b60006101b9610253610348565b8360405161190160f01b8152600281019290925260228201526042902090565b6000806000806102838686610473565b92509250925061029382826104c0565b5090949350505050565b606060ff83146102b7576102b083610582565b90506101b9565b8180546102c3906109bb565b80601f01602080910402602001604051908101604052809291908181526020018280546102ef906109bb565b801561033c5780601f106103115761010080835404028352916020019161033c565b820191906000526020600020905b81548152906001019060200180831161031f57829003601f168201915b505050505090506101b9565b6000306001600160a01b037f0000000000000000000000000000000000000000000000000000000000000000161480156103a157507f000000000000000000000000000000000000000000000000000000000000000046145b156103cb57507f000000000000000000000000000000000000000000000000000000000000000090565b610214604080517f8b73c3c69bb8fe3d512ecc4cf759cc79239f7b179b0ffacaa9a75d522b39400f60208201527f0000000000000000000000000000000000000000000000000000000000000000918101919091527f000000000000000000000000000000000000000000000000000000000000000060608201524660808201523060a082015260009060c00160405160208183030381529060405280519060200120905090565b600080600083516041036104ad5760208401516040850151606086015160001a61049f888285856105c1565b9550955095505050506104b9565b50508151600091506002905b9250925092565b60008260038111156104d4576104d46109f5565b036104dd575050565b60018260038111156104f1576104f16109f5565b0361050f5760405163f645eedf60e01b815260040160405180910390fd5b6002826003811115610523576105236109f5565b036105495760405163fce698f760e01b8152600481018290526024015b60405180910390fd5b600382600381111561055d5761055d6109f5565b0361057e576040516335e2f38360e21b815260048101829052602401610540565b5050565b6060600061058f83610690565b604080516020808252818301909252919250600091906020820181803683375050509182525060208101929092525090565b600080807f7fffffffffffffffffffffffffffffff5d576e7357a4501ddfe92f46681b20a08411156105fc5750600091506003905082610686565b604080516000808252602082018084528a905260ff891692820192909252606081018790526080810186905260019060a0016020604051602081039080840390855afa158015610650573d6000803e3d6000fd5b5050604051601f1901519150506001600160a01b03811661067c57506000925060019150829050610686565b9250600091508190505b9450945094915050565b600060ff8216601f8111156101b957604051632cd44ac360e21b815260040160405180910390fd5b6000815180845260005b818110156106de576020818501810151868301820152016106c2565b506000602082860101526020601f19601f83011685010191505092915050565b60ff60f81b8816815260e06020820152600061071d60e08301896106b8565b828103604084015261072f81896106b8565b606084018890526001600160a01b038716608085015260a0840186905283810360c08501528451808252602080870193509091019060005b81811015610785578351835260209384019390920191600101610767565b50909b9a5050505050505050505050565b634e487b7160e01b600052604160045260246000fd5b60008067ffffffffffffffff8411156107c7576107c7610796565b50604051601f19601f85018116603f0116810181811067ffffffffffffffff821117156107f6576107f6610796565b60405283815290508082840185101561080e57600080fd5b83836020830137600060208583010152509392505050565b60006020828403121561083857600080fd5b6040516020810167ffffffffffffffff8111828210171561085b5761085b610796565b604052905080823567ffffffffffffffff81111561087857600080fd5b8301601f8101851361088957600080fd5b610898858235602084016107ac565b8252505092915050565b600082601f8301126108b357600080fd5b6108c2838335602085016107ac565b9392505050565b600080604083850312156108dc57600080fd5b823567ffffffffffffffff8111156108f357600080fd5b6108ff85828601610826565b925050602083013567ffffffffffffffff81111561091c57600080fd5b610928858286016108a2565b9150509250929050565b60008060006060848603121561094757600080fd5b833567ffffffffffffffff81111561095e57600080fd5b61096a86828701610826565b935050602084013567ffffffffffffffff81111561098757600080fd5b610993868287016108a2565b92505060408401356001600160a01b03811681146109b057600080fd5b809150509250925092565b600181811c908216806109cf57607f821691505b6020821081036109ef57634e487b7160e01b600052602260045260246000fd5b50919050565b634e487b7160e01b600052602160045260246000fdfea164736f6c634300081b000a",
  "linkReferences": {},
  "deployedLinkReferences": {}
}